:020000040000FA
:1000000000008A110A1204281330FE000130FF009C
:1000100080308A110A12B3208A110A128312031344
:10002000A1007F08A0001530A2000130A3008312B8
:1000300003132008A4002108A500FF30A007031C1B
:10004000A1032408250403199C2804302207A400D6
:10005000A501A50D2308A5072408FE002508FF001B
:1000600080308A110A12B3208A110A1283120313F4
:10007000A7007F08A6002208FE002308FF008030AA
:100080008A110A12B3208A110A1283120313A900DB
:10009000A5007F08A800A40002302207A400A50143
:1000A000A50D2308A5072408FE002508FF008030C1
:1000B0008A110A12B3208A110A1283120313A500AF
:1000C000AB007F08A400AA00831203132608AA002D
:1000D0002708AB00FF30A607031CA7032A082B0440
:1000E000031995282808FE002908FF0080308A118E
:1000F0000A12A0208A110A1283120313AA002408EC
:1001000083120313840083138312031325188317A8
:100110002A0883120313800083120313A80A031909
:10012000A90AA40A0319A50A642806308312031336
:10013000A2070318A30A17288A110A12D428080054
:10014000003A0319A728803A0319AE2800347E0824
:10015000840083137F188317000808007F088A0033
:100160007E0882000800003A0319BB28803A031970
:10017000C528FF0100347E08840083137F1883178D
:100180000008FF00840A000808008A110A12AE2045
:10019000FD00FE0FFF03FF0A8A110A12AE20FC00C9
:1001A0007D08FF007C0808008316031306108312E5
:1001B000031306108316031307108312031307108B
:1001C00083120313061407143030FF0075308A11B0
:1001D0000A12FA208A110A1283120313061007105A
:1001E0003030FF0075308A110A12FA208A110A1283
:1001F000E028080083120313AD007F08AC00AE01B5
:10020000AF01831203132D082F02031D09292C08A7
:100210002E0203181229000083120313AE0A0319D9
:10022000AF0A01290800013400341B340134303492
:080230000034013400340034F5
:02400E00FA3F77
:00000001FF
