:020000040000FA
:1000000000008A110A126528F200030E8301F10034
:100010000A088A01F000040883120313AE00831259
:100020000313AC01831203138C1E192883120313CC
:10003000AC0A831203132C08013A031D57288312BC
:1000400003131A0883120313AD002D08313A031D60
:100050002C28831203130614831203132D08323A3B
:10006000031D3528831203130610831203132D0872
:10007000333A031D542883120313AC018312031374
:10008000861C452883120313AC0A831203132C0920
:10009000AC002C0C03184F28831203138610031C8A
:1000A0005428831203138614831203138C128312B1
:1000B00003132E0883120313840070088A0083013F
:1000C000710E8300F20E720E09005830FE000130EE
:1000D000FF0080308A110A1214218A110A12831239
:1000E0000313A1007F08A0005A30A2000130A30032
:1000F000831203132008A4002108A500FF30A007E5
:10010000031CA103240825040319FD280430220739
:10011000A400A501A50D2308A5072408FE002508B5
:10012000FF0080308A110A1214218A110A128312E8
:100130000313A7007F08A6002208FE002308FF0083
:1001400080308A110A1214218A110A1283120313B1
:10015000A900A5007F08A800A40002302207A4007F
:10016000A501A50D2308A5072408FE002508FF000A
:1001700080308A110A1214218A110A128312031381
:10018000A500AB007F08A400AA0083120313260871
:10019000AA002708AB00FF30A607031CA7032A0804
:1001A0002B040319F6282808FE002908FF008030D8
:1001B0008A110A1201218A110A1283120313AA005A
:1001C0002408831203138400831383120313251856
:1001D00083172A0883120313800083120313A80ACB
:1001E0000319A90AA40A0319A50AC528063083120F
:1001F0000313A2070318A30A78288A110A124929AF
:100200000800003A03190829803A03190F2900341D
:100210007E08840083137F188317000808007F0876
:100220008A007E0882000800003A03191C29803ADF
:1002300003192629FF0100347E08840083137F18E8
:1002400083170008FF00840A000808008A110A12B8
:100250000F21FD00FE0FFF03FF0A8A110A120F2172
:10026000FC007D08FF007C080800831603131815A6
:100270001930990018128312031398178316031369
:10028000071787178C16831203130B178B17181673
:1002900008008A110A1235218A110A1283160313E3
:1002A00006108610831203130610861056290800C4
:1002B00002340034663401342D3400340134003407
:1002C000673401342F3400340134003400340034F6
:02400E00FA3F77
:00000001FF
