:020000040000FA
:1000000000008A110A1204284130FE000130FF006E
:1000100080308A110A1207218A110A1283120313EF
:10002000B3007F08B2004330B4000130B500831242
:1000300003133208B6003308B700FF30B207031CC1
:10004000B3033608370403199C2804303407B6007C
:10005000B701B70D3508B7073608FE003708FF00AF
:1000600080308A110A1207218A110A12831203139F
:10007000B9007F08B8003408FE003508FF00803062
:100080008A110A1207218A110A1283120313BB0074
:10009000B7007F08BA00B60002303407B600B701D7
:1000A000B70D3508B7073608FE003708FF00803067
:1000B0008A110A1207218A110A1283120313B70048
:1000C000BD007F08B600BC00831203133808BC00D3
:1000D0003908BD00FF30B807031CB9033C083D04D4
:1000E000031995283A08FE003B08FF0080308A116A
:1000F0000A12F4208A110A1283120313BC00360874
:100100008312031384008313831203133718831796
:100110003C0883120313800083120313BA0A0319E5
:10012000BB0AB60A0319B70A642806308312031300
:10013000B4070318B50A17288A110A12A028080064
:100140003F3083120313A8000630A9005B30AA00D9
:100150004F30AB006630AC006D30AD007D30AE008E
:100160000730AF007F30B0006F30B100831603134B
:100170000810870183120313A401A501831203133E
:100180002508803E803E031DC7280A30240203183C
:10019000BA28831203132408283EA6000030A700C3
:1001A00025080318250FA7072608831203138400C8
:1001B0008313831203132718831783120313000872
:1001C000870008143030FF0075308A110A12282188
:1001D0008A110A1283120313081083120313A40A4C
:1001E0000319A50ABE280800003A0319FB28803A23
:1001F0000319022900347E08840083137F188317B3
:10020000000808007F088A007E0882000800003A83
:1002100003190F29803A03191929FF0100347E08B8
:10022000840083137F1883170008FF00840A0008E6
:1002300008008A110A120221FD00FE0FFF03FF0AC7
:100240008A110A120221FC007D08FF007C080800C8
:1002500083120313A1007F08A000A201A30183124F
:10026000031321082302031D372920082202031843
:100270004029000083120313A20A0319A30A2F299D
:10028000080001340034493401343E340034013470
:040290000034003402
:02400E00FA3F77
:00000001FF
